{
  "contractName": "BundleContract",
  "abi": [
    {
      "inputs": [
        {
          "internalType": "string",
          "name": "_name",
          "type": "string"
        },
        {
          "internalType": "string",
          "name": "_bundleUrl",
          "type": "string"
        },
        {
          "internalType": "string",
          "name": "_creatorName",
          "type": "string"
        },
        {
          "internalType": "address",
          "name": "_payableAddress",
          "type": "address"
        },
        {
          "internalType": "uint256",
          "name": "_price",
          "type": "uint256"
        }
      ],
      "stateMutability": "nonpayable",
      "type": "constructor"
    },
    {
      "inputs": [],
      "name": "purchase",
      "outputs": [],
      "stateMutability": "payable",
      "type": "function"
    },
    {
      "inputs": [],
      "name": "getOwner",
      "outputs": [
        {
          "internalType": "address",
          "name": "",
          "type": "address"
        }
      ],
      "stateMutability": "view",
      "type": "function"
    },
    {
      "inputs": [],
      "name": "getPrice",
      "outputs": [
        {
          "internalType": "uint256",
          "name": "",
          "type": "uint256"
        }
      ],
      "stateMutability": "view",
      "type": "function"
    },
    {
      "inputs": [],
      "name": "getName",
      "outputs": [
        {
          "internalType": "string",
          "name": "",
          "type": "string"
        }
      ],
      "stateMutability": "view",
      "type": "function"
    },
    {
      "inputs": [],
      "name": "getCreator",
      "outputs": [
        {
          "internalType": "string",
          "name": "",
          "type": "string"
        }
      ],
      "stateMutability": "view",
      "type": "function"
    },
    {
      "inputs": [],
      "name": "getBundleUrl",
      "outputs": [
        {
          "internalType": "string",
          "name": "",
          "type": "string"
        }
      ],
      "stateMutability": "view",
      "type": "function"
    }
  ],
  "bytecode": "0x60806040523480156200001157600080fd5b5060405162000efc38038062000efc833981810160405281019062000037919062000324565b6200006760405180606001604052806025815260200162000ed760259139866200010560201b620004a61760201c565b84600090805190602001906200007f929190620001d4565b50836001908051906020019062000098929190620001d4565b508260029080519060200190620000b1929190620001d4565b5081600360006101000a81548173ffffffffffffffffffffffffffffffffffffffff021916908373ffffffffffffffffffffffffffffffffffffffff1602179055508060048190555050505050506200066b565b620001a782826040516024016200011e92919062000432565b6040516020818303038152906040527f4b5c4277000000000000000000000000000000000000000000000000000000007bffffffffffffffffffffffffffffffffffffffffffffffffffffffff19166020820180517bffffffffffffffffffffffffffffffffffffffffffffffffffffffff8381831617835250505050620001ab60201b60201c565b5050565b60008151905060006a636f6e736f6c652e6c6f679050602083016000808483855afa5050505050565b828054620001e2906200055c565b90600052602060002090601f01602090048101928262000206576000855562000252565b82601f106200022157805160ff191683800117855562000252565b8280016001018555821562000252579182015b828111156200025157825182559160200191906001019062000234565b5b50905062000261919062000265565b5090565b5b808211156200028057600081600090555060010162000266565b5090565b60006200029b620002958462000496565b6200046d565b905082815260208101848484011115620002b457600080fd5b620002c184828562000526565b509392505050565b600081519050620002da8162000637565b92915050565b600082601f830112620002f257600080fd5b81516200030484826020860162000284565b91505092915050565b6000815190506200031e8162000651565b92915050565b600080600080600060a086880312156200033d57600080fd5b600086015167ffffffffffffffff8111156200035857600080fd5b6200036688828901620002e0565b955050602086015167ffffffffffffffff8111156200038457600080fd5b6200039288828901620002e0565b945050604086015167ffffffffffffffff811115620003b057600080fd5b620003be88828901620002e0565b9350506060620003d188828901620002c9565b9250506080620003e4888289016200030d565b9150509295509295909350565b6000620003fe82620004cc565b6200040a8185620004d7565b93506200041c81856020860162000526565b620004278162000626565b840191505092915050565b600060408201905081810360008301526200044e8185620003f1565b90508181036020830152620004648184620003f1565b90509392505050565b6000620004796200048c565b905062000487828262000592565b919050565b6000604051905090565b600067ffffffffffffffff821115620004b457620004b3620005f7565b5b620004bf8262000626565b9050602081019050919050565b600081519050919050565b600082825260208201905092915050565b6000620004f582620004fc565b9050919050565b600073ffffffffffffffffffffffffffffffffffffffff82169050919050565b6000819050919050565b60005b838110156200054657808201518184015260208101905062000529565b8381111562000556576000848401525b50505050565b600060028204905060018216806200057557607f821691505b602082108114156200058c576200058b620005c8565b5b50919050565b6200059d8262000626565b810181811067ffffffffffffffff82111715620005bf57620005be620005f7565b5b80604052505050565b7f4e487b7100000000000000000000000000000000000000000000000000000000600052602260045260246000fd5b7f4e487b7100000000000000000000000000000000000000000000000000000000600052604160045260246000fd5b6000601f19601f8301169050919050565b6200064281620004e8565b81146200064e57600080fd5b50565b6200065c816200051c565b81146200066857600080fd5b50565b61085c806200067b6000396000f3fe6080604052600436106100555760003560e01c80630ee2cb101461005a57806317d7de7c1461008557806364edfbf0146100b0578063893d20e8146100ba57806398d5fdca146100e55780639cd676b814610110575b600080fd5b34801561006657600080fd5b5061006f61013b565b60405161007c9190610623565b60405180910390f35b34801561009157600080fd5b5061009a6101cd565b6040516100a79190610623565b60405180910390f35b6100b861025f565b005b3480156100c657600080fd5b506100cf6103e0565b6040516100dc9190610608565b60405180910390f35b3480156100f157600080fd5b506100fa61040a565b60405161010791906106bc565b60405180910390f35b34801561011c57600080fd5b50610125610414565b6040516101329190610623565b60405180910390f35b60606002805461014a90610762565b80601f016020809104026020016040519081016040528092919081815260200182805461017690610762565b80156101c35780601f10610198576101008083540402835291602001916101c3565b820191906000526020600020905b8154815290600101906020018083116101a657829003601f168201915b5050505050905090565b6060600080546101dc90610762565b80601f016020809104026020016040519081016040528092919081815260200182805461020890610762565b80156102555780601f1061022a57610100808354040283529160200191610255565b820191906000526020600020905b81548152906001019060200180831161023857829003601f168201915b5050505050905090565b600073ffffffffffffffffffffffffffffffffffffffff16600560009054906101000a900473ffffffffffffffffffffffffffffffffffffffff1673ffffffffffffffffffffffffffffffffffffffff16146102f0576040517f08c379a00000000000000000000000000000000000000000000000000000000081526004016102e79061067c565b60405180910390fd5b6004543414610334576040517f08c379a000000000000000000000000000000000000000000000000000000000815260040161032b9061069c565b60405180910390fd5b600360009054906101000a900473ffffffffffffffffffffffffffffffffffffffff1673ffffffffffffffffffffffffffffffffffffffff166108fc349081150290604051600060405180830381858888f1935050505015801561039c573d6000803e3d6000fd5b5033600560006101000a81548173ffffffffffffffffffffffffffffffffffffffff021916908373ffffffffffffffffffffffffffffffffffffffff160217905550565b6000600560009054906101000a900473ffffffffffffffffffffffffffffffffffffffff16905090565b6000600454905090565b60606001805461042390610762565b80601f016020809104026020016040519081016040528092919081815260200182805461044f90610762565b801561049c5780601f106104715761010080835404028352916020019161049c565b820191906000526020600020905b81548152906001019060200180831161047f57829003601f168201915b5050505050905090565b61053e82826040516024016104bc929190610645565b6040516020818303038152906040527f4b5c4277000000000000000000000000000000000000000000000000000000007bffffffffffffffffffffffffffffffffffffffffffffffffffffffff19166020820180517bffffffffffffffffffffffffffffffffffffffffffffffffffffffff8381831617835250505050610542565b5050565b60008151905060006a636f6e736f6c652e6c6f679050602083016000808483855afa5050505050565b610574816106f3565b82525050565b6000610585826106d7565b61058f81856106e2565b935061059f81856020860161072f565b6105a8816107c3565b840191505092915050565b60006105c06018836106e2565b91506105cb826107d4565b602082019050919050565b60006105e36010836106e2565b91506105ee826107fd565b602082019050919050565b61060281610725565b82525050565b600060208201905061061d600083018461056b565b92915050565b6000602082019050818103600083015261063d818461057a565b905092915050565b6000604082019050818103600083015261065f818561057a565b90508181036020830152610673818461057a565b90509392505050565b60006020820190508181036000830152610695816105b3565b9050919050565b600060208201905081810360008301526106b5816105d6565b9050919050565b60006020820190506106d160008301846105f9565b92915050565b600081519050919050565b600082825260208201905092915050565b60006106fe82610705565b9050919050565b600073ffffffffffffffffffffffffffffffffffffffff82169050919050565b6000819050919050565b60005b8381101561074d578082015181840152602081019050610732565b8381111561075c576000848401525b50505050565b6000600282049050600182168061077a57607f821691505b6020821081141561078e5761078d610794565b5b50919050565b7f4e487b7100000000000000000000000000000000000000000000000000000000600052602260045260246000fd5b6000601f19601f8301169050919050565b7f42756e646c6520616c7265616479207075726368617365640000000000000000600082015250565b7f496e636f727265637420616d6f756e740000000000000000000000000000000060008201525056fea26469706673582212209e2ca2977e3b3e93e5ba55a7525e7350b943b0582c71b0626e9f7ad456c9eb1764736f6c634300080400334465706c6f79696e6720612042756e646c65436f6e74726163742077697468206e616d653a",
  "immutableReferences": {},
  "source": "//SPDX-License-Identifier: Unlicense\npragma solidity ^0.8.4;\n\nimport \"hardhat/console.sol\";\n\ncontract BundleContract {\n    // A BundleContract represents digital ownership over bundle files produced by a ThetaTV creator.\n    \n    string private name; // Name of the theta bundle contract / item.\n    string private bundleUrl; // Link to the video assets on IFPS.\n    string private creatorName; // Theta creator of the bundle.\n    address private payableAddress; // Address to credit on purchase.\n\n    uint private price;\n    address owner;\n\n    constructor(string memory _name, string memory _bundleUrl, string memory _creatorName, address _payableAddress, uint _price) {\n        console.log(\"Deploying a BundleContract with name:\", _name);\n        name = _name;\n        bundleUrl = _bundleUrl;\n        creatorName = _creatorName;\n        payableAddress = _payableAddress;\n        price = _price;\n    }\n\n    function purchase() public payable {\n        require(owner == address(0) , \"Bundle already purchased\");\n        require(msg.value == price, \"Incorrect amount\");\n\n        // Set ownership of contract.\n        payable(payableAddress).transfer(msg.value);\n        owner = msg.sender;\n    }\n\n     function getOwner() public view returns (address) {\n        return owner;\n    }\n\n    function getPrice() public view returns (uint) {\n        return price;\n    }\n\n    function getName() public view returns (string memory) {\n        return name;\n    }\n\n    function getCreator() public view returns (string memory) {\n        return creatorName;\n    }\n\n    function getBundleUrl() public view returns (string memory) {\n        return bundleUrl;\n    }\n\n}",
  "sourcePath": "/Users/chrisbuonocore/personal/hackathons/theta22/contracts/contracts/BundleContract.sol",
  "compiler": {
    "name": "solc",
    "version": "0.8.4+commit.c7e474f2.Emscripten.clang"
  },
  "schemaVersion": "3.4.6",
  "updatedAt": "2022-04-15T23:15:38.825Z",
  "devdoc": {
    "kind": "dev",
    "methods": {},
    "version": 1
  },
  "userdoc": {
    "kind": "user",
    "methods": {},
    "version": 1
  }
}